:020349002E0084
:10022F007F017E00120249D2A5D2A4D2A37F017E04
:0A023F0000120249C2A37F017E00F5
:10024900EF4E60147D737C00ED1D70011CED4C7048
:08025900F7EF1F70EB1E80E8B7
:01026100227A
:10028D001202627F057E001202497F2812018D7FC6
:10029D000112018D7F0612018D7F0E12018D7F805F
:0802AD0012018D7F0C02018D8E
:10026200C2A2C2A3C2A6C2A712022FD2A5D2A4D2F0
:10027200A3120245C2A312022FD2A5C2A4D2A31274
:0B0282000245C2A37F017E000202497A
:1001F6007FFFAE071FEE70FA7FFFAE071FEE70FAA5
:100206007FFFAE071FEE70FA7FFFAE071FEE70FA94
:100216007FFFAE071FEE70FA7FFFAE071FEE70FA84
:080226007FFFAE071FEE70FA26
:01022E0022AD
:10018D00AB07EB30E704D2A78002C2A7EB30E60441
:10019D00D2A68002C2A6EB30E504D2A58002C2A58C
:1001AD00EB30E404D2A48002C2A4C2A2D2A37F0287
:1001BD0012023EEB30E304D2A78002C2A7EB30E27D
:1001CD0004D2A68002C2A6EB30E104D2A58002C201
:1001DD00A5EB30E004D2A48002C2A4C2A2D2A37FB8
:0901ED00027E00120249C2A322A5
:10009A007C00AF82AE831201388E0E8F0F7C007DFA
:0800AA000A120138ED2430FFB9
:1000B200AB07EB30E704D2A78002C2A7EB30E6041D
:1000C200D2A68002C2A6EB30E504D2A58002C2A568
:1000D200EB30E404D2A48002C2A4D2A2D2A37F0253
:1000E2007E00120249C2A3EB30E304D2A78002C20F
:1000F200A7EB30E204D2A68002C2A6EB30E104D222
:10010200A58002C2A5EB30E004D2A48002C2A4D230
:0D011200A2D2A37F027E00120249C2A322E6
:1002B5008B088A09890A1202DBAB08AA09A90A1266
:1002C500011FFF60101200B27401250AF50AE4351A
:0602D50009F50980E42296
:1002DB00EF24FE600F14601114601324037016EDED
:1002EB00247F800DED24BF8008ED24938003ED2443
:0602FB00D3FF12018D2269
:060003008F088B828A8346
:10000900E4FAE5086003ED70077F8012018D800531
:10001900AF081202DBE50D6405450C6003BA011453
:100029007C277D10AF82AE83120138EF2430FF1296
:1000390000B27A01E50D6404450C6003BA01097C3C
:10004900037DE812009C7A01E50D6403450C600309
:10005900BA01077D6412009A7A01E50D6402450C24
:100069006003BA01077D0A12009A7A01E50D64015D
:10007900450C6003BA0107AE83AF821200A7D3E52E
:100089000D9405E50C6480948040057F451200B20B
:010099002244
:10032400EF4E60147D737C00ED1D70011CED4C706C
:08033400F7EF1F70EB1E80E8DB
:01033C00229E
:1003010012028D7BFF7A0379497D017F011202B5CB
:10031100750C00750D047BC57A017D017F02120009
:030321000380FE58
:0300000002033DBB
:0C033D00787FE4F6D8FD75810F02030103
:10011F00BB010689828A83E0225002E722BBFE02DE
:09012F00E32289828A83E4932211
:10013800BC000BBE0029EF8DF084FFADF022E4CCAB
:10014800F875F008EF2FFFEE33FEEC33FCEE9DEC74
:10015800984005FCEE9DFE0FD5F0E9E4CEFD22EDBA
:10016800F8F5F0EE8420D21CFEADF075F008EF2F04
:10017800FFED33FD4007985006D5F0F222C398FDF5
:050188000FD5F0EA2292
:00000001FF
