:100B45004144432077697468203830353100566F49
:080B55006C746167653A200031
:100A73007F017E00120A8DD2A5D2A4D2A37F017E6C
:0A0A830000120A8DC2A37F017E005D
:100A8D00EF4E60147D737C00ED1D70011CED4C70FC
:080A9D00F7EF1F70EB1E80E86B
:010AA500222E
:100AD100120AA67F057E00120A8D7F2812098A7FDD
:100AE1000112098A7F0612098A7F0E12098A7F8004
:080AF10012098A7F0C02098A38
:100AA600C2A2C2A3C2A6C2A7120A73D2A5D2A4D258
:100AB600A3120A89C2A3120A73D2A5C2A4D2A31290
:0B0AC6000A89C2A37F017E00020A8D96
:100A3A007FFFAE071FEE70FA7FFFAE071FEE70FA58
:100A4A007FFFAE071FEE70FA7FFFAE071FEE70FA48
:100A5A007FFFAE071FEE70FA7FFFAE071FEE70FA38
:080A6A007FFFAE071FEE70FADA
:010A72002261
:10098A00AB07EB30E704D2A78002C2A7EB30E6043C
:10099A00D2A68002C2A6EB30E504D2A58002C2A587
:1009AA00EB30E404D2A48002C2A4C2A2D2A37F0282
:1009BA00120A82EB30E304D2A78002C2A7EB30E22C
:1009CA0004D2A68002C2A6EB30E104D2A58002C2FC
:1009DA00A5EB30E004D2A48002C2A4C2A2D2A37FB3
:0909EA00027E00120A8DC2A32254
:100897007C00AF82AE831209358E0E8F0F7C007DF0
:0808A7000A120935ED2430FFAF
:1008AF00AB07EB30E704D2A78002C2A7EB30E60418
:1008BF00D2A68002C2A6EB30E504D2A58002C2A563
:1008CF00EB30E404D2A48002C2A4D2A2D2A37F024E
:1008DF007E00120A8DC2A3EB30E304D2A78002C2BE
:1008EF00A7EB30E204D2A68002C2A6EB30E104D21D
:1008FF00A58002C2A5EB30E004D2A48002C2A4D22C
:0D090F00A2D2A37F027E00120A8DC2A32295
:100AF9008B088A09890A120B1FAB08AA09A90A12CD
:100B0900091CFF60101208AF7401250AF50AE435C3
:060B190009F50980E42249
:100B1F00EF24FE600F14601114601324037016EDA0
:100B2F00247F800DED24BF8008ED24938003ED24F6
:060B3F00D3FF12098A2217
:060800008F088B828A8341
:10080600E4FAE5086003ED70077F8012098A800527
:10081600AF08120B1FE50D6405450C6003BA011401
:100826007C277D10AF82AE83120935EF2430FF128C
:1008360008AF7A01E50D6404450C6003BA01097C32
:10084600037DE81208997A01E50D6403450C6003FF
:10085600BA01077D641208977A01E50D6402450C1A
:100866006003BA01077D0A1208977A01E50D640153
:10087600450C6003BA0107AE83AF821208A4D3E524
:100886000D9405E50C6480948040057F451208AF01
:01089600223F
:1009F3007F647E00120A8DD2B2120AD17BFF7A0B7A
:100A030079457D017F01120AF97BFF7A0B79537DCA
:100A1300017F02120AF9120B7A120B5DE510FB7AC1
:100A230000750C00750D047D0B7F021208007F64B6
:070A33007E00120A8D80DF36
:080B7A00C2B3D2B320B2FD2288
:100B5D00D2B4C2B48590107FFA7E00120A8DD2B441
:010B6D002265
:03000000020B6E82
:0C0B6E00787FE4F6D8FD7581100209F3D1
:10091C00BB010689828A83E0225002E722BBFE02D9
:09092C00E32289828A83E493220C
:10093500BC000BBE0029EF8DF084FFADF022E4CCA6
:10094500F875F008EF2FFFEE33FEEC33FCEE9DEC6F
:10095500984005FCEE9DFE0FD5F0E9E4CEFD22EDB5
:10096500F8F5F0EE8420D21CFEADF075F008EF2FFF
:10097500FFED33FD4007985006D5F0F222C398FDF0
:050985000FD5F0EA228D
:00000001FF
